{
  "_format": "hh3-artifact-1",
  "contractName": "FileShare",
  "sourceName": "contracts/FileShare.sol",
  "abi": [
    {
      "anonymous": false,
      "inputs": [
        {
          "indexed": true,
          "internalType": "address",
          "name": "sender",
          "type": "address"
        },
        {
          "indexed": true,
          "internalType": "address",
          "name": "receiver",
          "type": "address"
        },
        {
          "indexed": false,
          "internalType": "string",
          "name": "cid",
          "type": "string"
        },
        {
          "indexed": false,
          "internalType": "uint256",
          "name": "timestamp",
          "type": "uint256"
        }
      ],
      "name": "FileShared",
      "type": "event"
    },
    {
      "inputs": [
        {
          "internalType": "address",
          "name": "receiver",
          "type": "address"
        },
        {
          "internalType": "string",
          "name": "cid",
          "type": "string"
        }
      ],
      "name": "shareFile",
      "outputs": [],
      "stateMutability": "nonpayable",
      "type": "function"
    }
  ],
  "bytecode": "0x6080604052348015600e575f5ffd5b506101ea8061001c5f395ff3fe608060405234801561000f575f5ffd5b5060043610610029575f3560e01c8063dfa36d5b1461002d575b5f5ffd5b61004061003b3660046100a7565b610042565b005b816001600160a01b0316336001600160a01b03167f0d6a645918bff6438eb9724d4ff22c453139358085d538e7e52fc385d5a0166f8342604051610087929190610178565b60405180910390a35050565b634e487b7160e01b5f52604160045260245ffd5b5f5f604083850312156100b8575f5ffd5b82356001600160a01b03811681146100ce575f5ffd5b9150602083013567ffffffffffffffff8111156100e9575f5ffd5b8301601f810185136100f9575f5ffd5b803567ffffffffffffffff81111561011357610113610093565b604051601f8201601f19908116603f0116810167ffffffffffffffff8111828210171561014257610142610093565b604052818152828201602001871015610159575f5ffd5b816020840160208301375f602083830101528093505050509250929050565b604081525f83518060408401528060208601606085015e5f606082850101526060601f19601f830116840101915050826020830152939250505056fea26469706673582212206ac4e797baca1c3c8e0b687640b017975a0a0200da03ec3939354ea913fb13a664736f6c634300081c0033",
  "linkReferences": {},
  "deployedLinkReferences": {},
  "immutableReferences": {},
  "inputSourceName": "project/contracts/FileShare.sol",
  "buildInfoId": "solc-0_8_28-1dd606216cfe4dc050e1d818149f16ab8da84826"
}